{
	"contracts/Level2Solution.sol": {
		"Level_2_Solution": {
			"abi": [
				{
					"inputs": [
						{
							"internalType": "uint256[10]",
							"name": "unsortedArray",
							"type": "uint256[10]"
						}
					],
					"name": "solution",
					"outputs": [
						{
							"internalType": "uint256[10]",
							"name": "sortedArray",
							"type": "uint256[10]"
						}
					],
					"stateMutability": "nonpayable",
					"type": "function"
				}
			],
			"devdoc": {
				"kind": "dev",
				"methods": {},
				"version": 1
			},
			"evm": {
				"assembly": "    /* \"contracts/Level2Solution.sol\":276:895  contract Level_2_Solution {... */\n  mstore(0x40, 0x80)\n  callvalue\n  dup1\n  iszero\n  tag_1\n  jumpi\n  0x00\n  dup1\n  revert\ntag_1:\n  pop\n  dataSize(sub_0)\n  dup1\n  dataOffset(sub_0)\n  0x00\n  codecopy\n  0x00\n  return\nstop\n\nsub_0: assembly {\n        /* \"contracts/Level2Solution.sol\":276:895  contract Level_2_Solution {... */\n      mstore(0x40, 0x80)\n      callvalue\n      dup1\n      iszero\n      tag_1\n      jumpi\n      0x00\n      dup1\n      revert\n    tag_1:\n      pop\n      jumpi(tag_2, lt(calldatasize, 0x04))\n      shr(0xe0, calldataload(0x00))\n      dup1\n      0x209b472e\n      eq\n      tag_3\n      jumpi\n    tag_2:\n      0x00\n      dup1\n      revert\n        /* \"contracts/Level2Solution.sol\":317:892  function solution(uint256[10] calldata unsortedArray) external returns (uint256[10] memory sortedArray){... */\n    tag_3:\n      tag_4\n      tag_5\n      calldatasize\n      0x04\n      tag_6\n      jump\t// in\n    tag_5:\n      tag_7\n      jump\t// in\n    tag_4:\n      mload(0x40)\n      tag_8\n      swap2\n      swap1\n      tag_9\n      jump\t// in\n    tag_8:\n      mload(0x40)\n      dup1\n      swap2\n      sub\n      swap1\n      return\n    tag_7:\n        /* \"contracts/Level2Solution.sol\":389:419  uint256[10] memory sortedArray */\n      tag_10\n      tag_11\n      jump\t// in\n    tag_10:\n        /* \"contracts/Level2Solution.sol\":426:453  sortedArray = unsortedArray */\n      0x40\n      dup1\n      mload\n      0x0140\n      dup2\n      dup2\n      add\n      swap1\n      swap3\n      mstore\n      swap1\n        /* \"contracts/Level2Solution.sol\":440:453  unsortedArray */\n      dup4\n      swap1\n        /* \"contracts/Level2Solution.sol\":426:453  sortedArray = unsortedArray */\n      0x0a\n      swap1\n      dup4\n      swap1\n        /* \"contracts/Level2Solution.sol\":440:453  unsortedArray */\n      dup4\n      swap1\n        /* \"contracts/Level2Solution.sol\":426:453  sortedArray = unsortedArray */\n      dup1\n        /* \"contracts/Level2Solution.sol\":440:453  unsortedArray */\n      dup3\n        /* \"contracts/Level2Solution.sol\":426:453  sortedArray = unsortedArray */\n      dup5\n      calldatacopy\n      0x00\n      swap3\n      add\n      dup3\n      swap1\n      mstore\n      pop\n      swap3\n      swap4\n      pop\n      pop\n      pop\n        /* \"contracts/Level2Solution.sol\":459:890  for (uint i = 0; i < sortedArray.length; i++) {... */\n    tag_13:\n        /* \"contracts/Level2Solution.sol\":480:498  sortedArray.length */\n      0x0a\n        /* \"contracts/Level2Solution.sol\":476:477  i */\n      dup2\n        /* \"contracts/Level2Solution.sol\":476:498  i < sortedArray.length */\n      lt\n        /* \"contracts/Level2Solution.sol\":459:890  for (uint i = 0; i < sortedArray.length; i++) {... */\n      iszero\n      tag_14\n      jumpi\n        /* \"contracts/Level2Solution.sol\":531:532  i */\n      dup1\n        /* \"contracts/Level2Solution.sol\":515:528  uint minIndex */\n      0x00\n        /* \"contracts/Level2Solution.sol\":556:561  i + 1 */\n      tag_19\n        /* \"contracts/Level2Solution.sol\":531:532  i */\n      dup3\n        /* \"contracts/Level2Solution.sol\":560:561  1 */\n      0x01\n        /* \"contracts/Level2Solution.sol\":556:561  i + 1 */\n      tag_20\n      jump\t// in\n    tag_19:\n        /* \"contracts/Level2Solution.sol\":547:561  uint j = i + 1 */\n      swap1\n      pop\n        /* \"contracts/Level2Solution.sol\":542:705  for (uint j = i + 1; j < sortedArray.length; j++) {... */\n    tag_16:\n        /* \"contracts/Level2Solution.sol\":567:585  sortedArray.length */\n      0x0a\n        /* \"contracts/Level2Solution.sol\":563:564  j */\n      dup2\n        /* \"contracts/Level2Solution.sol\":563:585  j < sortedArray.length */\n      lt\n        /* \"contracts/Level2Solution.sol\":542:705  for (uint j = i + 1; j < sortedArray.length; j++) {... */\n      iszero\n      tag_17\n      jumpi\n        /* \"contracts/Level2Solution.sol\":627:638  sortedArray */\n      dup4\n        /* \"contracts/Level2Solution.sol\":639:647  minIndex */\n      dup3\n        /* \"contracts/Level2Solution.sol\":627:648  sortedArray[minIndex] */\n      0x0a\n      dup2\n      lt\n      tag_22\n      jumpi\n      tag_22\n      tag_23\n      jump\t// in\n    tag_22:\n      0x20\n      mul\n      add\n      mload\n        /* \"contracts/Level2Solution.sol\":610:621  sortedArray */\n      dup5\n        /* \"contracts/Level2Solution.sol\":622:623  j */\n      dup3\n        /* \"contracts/Level2Solution.sol\":610:624  sortedArray[j] */\n      0x0a\n      dup2\n      lt\n      tag_25\n      jumpi\n      tag_25\n      tag_23\n      jump\t// in\n    tag_25:\n      0x20\n      mul\n      add\n      mload\n        /* \"contracts/Level2Solution.sol\":610:648  sortedArray[j] < sortedArray[minIndex] */\n      lt\n        /* \"contracts/Level2Solution.sol\":606:695  if (sortedArray[j] < sortedArray[minIndex]) {... */\n      iszero\n      tag_26\n      jumpi\n        /* \"contracts/Level2Solution.sol\":679:680  j */\n      dup1\n        /* \"contracts/Level2Solution.sol\":668:680  minIndex = j */\n      swap2\n      pop\n        /* \"contracts/Level2Solution.sol\":606:695  if (sortedArray[j] < sortedArray[minIndex]) {... */\n    tag_26:\n        /* \"contracts/Level2Solution.sol\":587:590  j++ */\n      dup1\n      tag_27\n      dup2\n      tag_28\n      jump\t// in\n    tag_27:\n      swap2\n      pop\n      pop\n        /* \"contracts/Level2Solution.sol\":542:705  for (uint j = i + 1; j < sortedArray.length; j++) {... */\n      jump(tag_16)\n    tag_17:\n      pop\n        /* \"contracts/Level2Solution.sol\":729:730  i */\n      dup2\n        /* \"contracts/Level2Solution.sol\":717:725  minIndex */\n      dup2\n        /* \"contracts/Level2Solution.sol\":717:730  minIndex != i */\n      eq\n        /* \"contracts/Level2Solution.sol\":714:884  if(minIndex != i) {... */\n      tag_29\n      jumpi\n        /* \"contracts/Level2Solution.sol\":746:758  uint256 temp */\n      0x00\n        /* \"contracts/Level2Solution.sol\":761:772  sortedArray */\n      dup4\n        /* \"contracts/Level2Solution.sol\":773:774  i */\n      dup4\n        /* \"contracts/Level2Solution.sol\":761:775  sortedArray[i] */\n      0x0a\n      dup2\n      lt\n      tag_31\n      jumpi\n      tag_31\n      tag_23\n      jump\t// in\n    tag_31:\n      0x20\n      mul\n      add\n      mload\n        /* \"contracts/Level2Solution.sol\":746:775  uint256 temp = sortedArray[i] */\n      swap1\n      pop\n        /* \"contracts/Level2Solution.sol\":806:817  sortedArray */\n      dup4\n        /* \"contracts/Level2Solution.sol\":818:826  minIndex */\n      dup3\n        /* \"contracts/Level2Solution.sol\":806:827  sortedArray[minIndex] */\n      0x0a\n      dup2\n      lt\n      tag_33\n      jumpi\n      tag_33\n      tag_23\n      jump\t// in\n    tag_33:\n      0x20\n      mul\n      add\n      mload\n        /* \"contracts/Level2Solution.sol\":789:800  sortedArray */\n      dup5\n        /* \"contracts/Level2Solution.sol\":801:802  i */\n      dup5\n        /* \"contracts/Level2Solution.sol\":789:803  sortedArray[i] */\n      0x0a\n      dup2\n      lt\n      tag_35\n      jumpi\n      tag_35\n      tag_23\n      jump\t// in\n    tag_35:\n      0x20\n      mul\n      add\n        /* \"contracts/Level2Solution.sol\":789:827  sortedArray[i] = sortedArray[minIndex] */\n      mstore\n        /* \"contracts/Level2Solution.sol\":867:871  temp */\n      dup1\n        /* \"contracts/Level2Solution.sol\":843:854  sortedArray */\n      dup5\n        /* \"contracts/Level2Solution.sol\":855:863  minIndex */\n      dup4\n        /* \"contracts/Level2Solution.sol\":843:864  sortedArray[minIndex] */\n      0x0a\n      dup2\n      lt\n      tag_37\n      jumpi\n      tag_37\n      tag_23\n      jump\t// in\n    tag_37:\n      0x20\n      mul\n      add\n        /* \"contracts/Level2Solution.sol\":843:871  sortedArray[minIndex] = temp */\n      mstore\n      pop\n        /* \"contracts/Level2Solution.sol\":714:884  if(minIndex != i) {... */\n    tag_29:\n      pop\n        /* \"contracts/Level2Solution.sol\":500:503  i++ */\n      dup1\n      tag_38\n      dup2\n      tag_28\n      jump\t// in\n    tag_38:\n      swap2\n      pop\n      pop\n        /* \"contracts/Level2Solution.sol\":459:890  for (uint i = 0; i < sortedArray.length; i++) {... */\n      jump(tag_13)\n    tag_14:\n      pop\n        /* \"contracts/Level2Solution.sol\":317:892  function solution(uint256[10] calldata unsortedArray) external returns (uint256[10] memory sortedArray){... */\n      swap2\n      swap1\n      pop\n      jump\t// out\n    tag_11:\n      mload(0x40)\n      dup1\n      0x0140\n      add\n      0x40\n      mstore\n      dup1\n      0x0a\n      swap1\n      0x20\n      dup3\n      mul\n      dup1\n      calldatasize\n      dup4\n      calldatacopy\n      pop\n      swap2\n      swap3\n      swap2\n      pop\n      pop\n      jump\t// out\n        /* \"#utility.yul\":14:288   */\n    tag_6:\n        /* \"#utility.yul\":99:105   */\n      0x00\n        /* \"#utility.yul\":130:133   */\n      0x0140\n        /* \"#utility.yul\":174:176   */\n      dup1\n        /* \"#utility.yul\":162:171   */\n      dup4\n        /* \"#utility.yul\":153:160   */\n      dup6\n        /* \"#utility.yul\":149:172   */\n      sub\n        /* \"#utility.yul\":145:177   */\n      slt\n        /* \"#utility.yul\":142:194   */\n      iszero\n      tag_42\n      jumpi\n        /* \"#utility.yul\":190:191   */\n      0x00\n        /* \"#utility.yul\":187:188   */\n      dup1\n        /* \"#utility.yul\":180:192   */\n      revert\n        /* \"#utility.yul\":142:194   */\n    tag_42:\n        /* \"#utility.yul\":229:236   */\n      dup4\n        /* \"#utility.yul\":224:226   */\n      dup2\n        /* \"#utility.yul\":213:222   */\n      dup5\n        /* \"#utility.yul\":209:227   */\n      add\n        /* \"#utility.yul\":206:237   */\n      gt\n        /* \"#utility.yul\":203:254   */\n      iszero\n      tag_43\n      jumpi\n        /* \"#utility.yul\":250:251   */\n      0x00\n        /* \"#utility.yul\":247:248   */\n      dup1\n        /* \"#utility.yul\":240:252   */\n      revert\n        /* \"#utility.yul\":203:254   */\n    tag_43:\n      pop\n        /* \"#utility.yul\":273:282   */\n      swap1\n      swap3\n        /* \"#utility.yul\":14:288   */\n      swap2\n      pop\n      pop\n      jump\t// out\n        /* \"#utility.yul\":293:790   */\n    tag_9:\n        /* \"#utility.yul\":475:478   */\n      0x0140\n        /* \"#utility.yul\":460:479   */\n      dup2\n      add\n        /* \"#utility.yul\":464:473   */\n      dup2\n        /* \"#utility.yul\":556:562   */\n      dup4\n        /* \"#utility.yul\":433:437   */\n      0x00\n        /* \"#utility.yul\":590:784   */\n    tag_45:\n        /* \"#utility.yul\":604:608   */\n      0x0a\n        /* \"#utility.yul\":601:602   */\n      dup2\n        /* \"#utility.yul\":598:609   */\n      lt\n        /* \"#utility.yul\":590:784   */\n      iszero\n      tag_47\n      jumpi\n        /* \"#utility.yul\":663:676   */\n      dup2\n      mload\n        /* \"#utility.yul\":651:677   */\n      dup4\n      mstore\n        /* \"#utility.yul\":700:704   */\n      0x20\n        /* \"#utility.yul\":724:736   */\n      swap3\n      dup4\n      add\n      swap3\n        /* \"#utility.yul\":759:774   */\n      swap1\n      swap2\n      add\n      swap1\n        /* \"#utility.yul\":624:625   */\n      0x01\n        /* \"#utility.yul\":617:626   */\n      add\n        /* \"#utility.yul\":590:784   */\n      jump(tag_45)\n    tag_47:\n        /* \"#utility.yul\":594:597   */\n      pop\n      pop\n      pop\n        /* \"#utility.yul\":293:790   */\n      swap3\n      swap2\n      pop\n      pop\n      jump\t// out\n        /* \"#utility.yul\":795:922   */\n    tag_39:\n        /* \"#utility.yul\":856:866   */\n      0x4e487b71\n        /* \"#utility.yul\":851:854   */\n      0xe0\n        /* \"#utility.yul\":847:867   */\n      shl\n        /* \"#utility.yul\":844:845   */\n      0x00\n        /* \"#utility.yul\":837:868   */\n      mstore\n        /* \"#utility.yul\":887:891   */\n      0x11\n        /* \"#utility.yul\":884:885   */\n      0x04\n        /* \"#utility.yul\":877:892   */\n      mstore\n        /* \"#utility.yul\":911:915   */\n      0x24\n        /* \"#utility.yul\":908:909   */\n      0x00\n        /* \"#utility.yul\":901:916   */\n      revert\n        /* \"#utility.yul\":927:1052   */\n    tag_20:\n        /* \"#utility.yul\":992:1001   */\n      dup1\n      dup3\n      add\n        /* \"#utility.yul\":1013:1023   */\n      dup1\n      dup3\n      gt\n        /* \"#utility.yul\":1010:1046   */\n      iszero\n      tag_51\n      jumpi\n        /* \"#utility.yul\":1026:1044   */\n      tag_51\n      tag_39\n      jump\t// in\n    tag_51:\n        /* \"#utility.yul\":927:1052   */\n      swap3\n      swap2\n      pop\n      pop\n      jump\t// out\n        /* \"#utility.yul\":1057:1184   */\n    tag_23:\n        /* \"#utility.yul\":1118:1128   */\n      0x4e487b71\n        /* \"#utility.yul\":1113:1116   */\n      0xe0\n        /* \"#utility.yul\":1109:1129   */\n      shl\n        /* \"#utility.yul\":1106:1107   */\n      0x00\n        /* \"#utility.yul\":1099:1130   */\n      mstore\n        /* \"#utility.yul\":1149:1153   */\n      0x32\n        /* \"#utility.yul\":1146:1147   */\n      0x04\n        /* \"#utility.yul\":1139:1154   */\n      mstore\n        /* \"#utility.yul\":1173:1177   */\n      0x24\n        /* \"#utility.yul\":1170:1171   */\n      0x00\n        /* \"#utility.yul\":1163:1178   */\n      revert\n        /* \"#utility.yul\":1189:1324   */\n    tag_28:\n        /* \"#utility.yul\":1228:1231   */\n      0x00\n        /* \"#utility.yul\":1249:1266   */\n      0x01\n      dup3\n      add\n        /* \"#utility.yul\":1246:1289   */\n      tag_55\n      jumpi\n        /* \"#utility.yul\":1269:1287   */\n      tag_55\n      tag_39\n      jump\t// in\n    tag_55:\n      pop\n        /* \"#utility.yul\":1316:1317   */\n      0x01\n        /* \"#utility.yul\":1305:1318   */\n      add\n      swap1\n        /* \"#utility.yul\":1189:1324   */\n      jump\t// out\n\n    auxdata: 0xa2646970667358221220a3d55e2dbab47ca86d134dd764e9b834231ee5853f829d22ca451f3e7482b4bb64736f6c63430008120033\n}\n",
				"bytecode": {
					"linkReferences": {},
					"object": "608060405234801561001057600080fd5b5061028b806100206000396000f3fe608060405234801561001057600080fd5b506004361061002b5760003560e01c8063209b472e14610030575b600080fd5b61004361003e36600461019a565b610059565b60405161005091906101c5565b60405180910390f35b61006161017b565b60408051610140818101909252908390600a908390839080828437600092018290525092935050505b600a811015610175578060006100a182600161020d565b90505b600a8110156100f7578382600a81106100bf576100bf610226565b60200201518482600a81106100d6576100d6610226565b602002015110156100e5578091505b806100ef8161023c565b9150506100a4565b508181146101625760008383600a811061011357610113610226565b602002015190508382600a811061012c5761012c610226565b60200201518484600a811061014357610143610226565b6020020152808483600a811061015b5761015b610226565b6020020152505b508061016d8161023c565b91505061008a565b50919050565b604051806101400160405280600a906020820280368337509192915050565b60006101408083850312156101ae57600080fd5b8381840111156101bd57600080fd5b509092915050565b6101408101818360005b600a8110156101ee5781518352602092830192909101906001016101cf565b50505092915050565b634e487b7160e01b600052601160045260246000fd5b80820180821115610220576102206101f7565b92915050565b634e487b7160e01b600052603260045260246000fd5b60006001820161024e5761024e6101f7565b506001019056fea2646970667358221220a3d55e2dbab47ca86d134dd764e9b834231ee5853f829d22ca451f3e7482b4bb64736f6c63430008120033",
					"opcodes": "PUSH1 0x80 PUSH1 0x40 MSTORE CALLVALUE DUP1 ISZERO PUSH2 0x10 JUMPI PUSH1 0x0 DUP1 REVERT JUMPDEST POP PUSH2 0x28B DUP1 PUSH2 0x20 PUSH1 0x0 CODECOPY PUSH1 0x0 RETURN INVALID PUSH1 0x80 PUSH1 0x40 MSTORE CALLVALUE DUP1 ISZERO PUSH2 0x10 JUMPI PUSH1 0x0 DUP1 REVERT JUMPDEST POP PUSH1 0x4 CALLDATASIZE LT PUSH2 0x2B JUMPI PUSH1 0x0 CALLDATALOAD PUSH1 0xE0 SHR DUP1 PUSH4 0x209B472E EQ PUSH2 0x30 JUMPI JUMPDEST PUSH1 0x0 DUP1 REVERT JUMPDEST PUSH2 0x43 PUSH2 0x3E CALLDATASIZE PUSH1 0x4 PUSH2 0x19A JUMP JUMPDEST PUSH2 0x59 JUMP JUMPDEST PUSH1 0x40 MLOAD PUSH2 0x50 SWAP2 SWAP1 PUSH2 0x1C5 JUMP JUMPDEST PUSH1 0x40 MLOAD DUP1 SWAP2 SUB SWAP1 RETURN JUMPDEST PUSH2 0x61 PUSH2 0x17B JUMP JUMPDEST PUSH1 0x40 DUP1 MLOAD PUSH2 0x140 DUP2 DUP2 ADD SWAP1 SWAP3 MSTORE SWAP1 DUP4 SWAP1 PUSH1 0xA SWAP1 DUP4 SWAP1 DUP4 SWAP1 DUP1 DUP3 DUP5 CALLDATACOPY PUSH1 0x0 SWAP3 ADD DUP3 SWAP1 MSTORE POP SWAP3 SWAP4 POP POP POP JUMPDEST PUSH1 0xA DUP2 LT ISZERO PUSH2 0x175 JUMPI DUP1 PUSH1 0x0 PUSH2 0xA1 DUP3 PUSH1 0x1 PUSH2 0x20D JUMP JUMPDEST SWAP1 POP JUMPDEST PUSH1 0xA DUP2 LT ISZERO PUSH2 0xF7 JUMPI DUP4 DUP3 PUSH1 0xA DUP2 LT PUSH2 0xBF JUMPI PUSH2 0xBF PUSH2 0x226 JUMP JUMPDEST PUSH1 0x20 MUL ADD MLOAD DUP5 DUP3 PUSH1 0xA DUP2 LT PUSH2 0xD6 JUMPI PUSH2 0xD6 PUSH2 0x226 JUMP JUMPDEST PUSH1 0x20 MUL ADD MLOAD LT ISZERO PUSH2 0xE5 JUMPI DUP1 SWAP2 POP JUMPDEST DUP1 PUSH2 0xEF DUP2 PUSH2 0x23C JUMP JUMPDEST SWAP2 POP POP PUSH2 0xA4 JUMP JUMPDEST POP DUP2 DUP2 EQ PUSH2 0x162 JUMPI PUSH1 0x0 DUP4 DUP4 PUSH1 0xA DUP2 LT PUSH2 0x113 JUMPI PUSH2 0x113 PUSH2 0x226 JUMP JUMPDEST PUSH1 0x20 MUL ADD MLOAD SWAP1 POP DUP4 DUP3 PUSH1 0xA DUP2 LT PUSH2 0x12C JUMPI PUSH2 0x12C PUSH2 0x226 JUMP JUMPDEST PUSH1 0x20 MUL ADD MLOAD DUP5 DUP5 PUSH1 0xA DUP2 LT PUSH2 0x143 JUMPI PUSH2 0x143 PUSH2 0x226 JUMP JUMPDEST PUSH1 0x20 MUL ADD MSTORE DUP1 DUP5 DUP4 PUSH1 0xA DUP2 LT PUSH2 0x15B JUMPI PUSH2 0x15B PUSH2 0x226 JUMP JUMPDEST PUSH1 0x20 MUL ADD MSTORE POP JUMPDEST POP DUP1 PUSH2 0x16D DUP2 PUSH2 0x23C JUMP JUMPDEST SWAP2 POP POP PUSH2 0x8A JUMP JUMPDEST POP SWAP2 SWAP1 POP JUMP JUMPDEST PUSH1 0x40 MLOAD DUP1 PUSH2 0x140 ADD PUSH1 0x40 MSTORE DUP1 PUSH1 0xA SWAP1 PUSH1 0x20 DUP3 MUL DUP1 CALLDATASIZE DUP4 CALLDATACOPY POP SWAP2 SWAP3 SWAP2 POP POP JUMP JUMPDEST PUSH1 0x0 PUSH2 0x140 DUP1 DUP4 DUP6 SUB SLT ISZERO PUSH2 0x1AE JUMPI PUSH1 0x0 DUP1 REVERT JUMPDEST DUP4 DUP2 DUP5 ADD GT ISZERO PUSH2 0x1BD JUMPI PUSH1 0x0 DUP1 REVERT JUMPDEST POP SWAP1 SWAP3 SWAP2 POP POP JUMP JUMPDEST PUSH2 0x140 DUP2 ADD DUP2 DUP4 PUSH1 0x0 JUMPDEST PUSH1 0xA DUP2 LT ISZERO PUSH2 0x1EE JUMPI DUP2 MLOAD DUP4 MSTORE PUSH1 0x20 SWAP3 DUP4 ADD SWAP3 SWAP1 SWAP2 ADD SWAP1 PUSH1 0x1 ADD PUSH2 0x1CF JUMP JUMPDEST POP POP POP SWAP3 SWAP2 POP POP JUMP JUMPDEST PUSH4 0x4E487B71 PUSH1 0xE0 SHL PUSH1 0x0 MSTORE PUSH1 0x11 PUSH1 0x4 MSTORE PUSH1 0x24 PUSH1 0x0 REVERT JUMPDEST DUP1 DUP3 ADD DUP1 DUP3 GT ISZERO PUSH2 0x220 JUMPI PUSH2 0x220 PUSH2 0x1F7 JUMP JUMPDEST SWAP3 SWAP2 POP POP JUMP JUMPDEST PUSH4 0x4E487B71 PUSH1 0xE0 SHL PUSH1 0x0 MSTORE PUSH1 0x32 PUSH1 0x4 MSTORE PUSH1 0x24 PUSH1 0x0 REVERT JUMPDEST PUSH1 0x0 PUSH1 0x1 DUP3 ADD PUSH2 0x24E JUMPI PUSH2 0x24E PUSH2 0x1F7 JUMP JUMPDEST POP PUSH1 0x1 ADD SWAP1 JUMP INVALID LOG2 PUSH5 0x6970667358 0x22 SLT KECCAK256 LOG3 0xD5 0x5E 0x2D 0xBA 0xB4 PUSH29 0xA86D134DD764E9B834231EE5853F829D22CA451F3E7482B4BB64736F6C PUSH4 0x43000812 STOP CALLER "
				},
				"gasEstimates": {
					"creation": {
						"codeDepositCost": "130200",
						"executionCost": "177",
						"totalCost": "130377"
					},
					"external": {
						"solution(uint256[10])": "infinite"
					}
				},
				"methodIdentifiers": {
					"solution(uint256[10])": "209b472e"
				}
			},
			"storageLayout": {
				"storage": [],
				"types": null
			},
			"userdoc": {
				"kind": "user",
				"methods": {},
				"version": 1
			}
		}
	}
}