{
	"data": {
		"bytecode": {
			"linkReferences": {},
			"object": "608060405234801561001057600080fd5b506102ba806100206000396000f3fe608060405234801561001057600080fd5b506004361061002b5760003560e01c80635f3fa56b14610030575b600080fd5b61004361003e366004610196565b610059565b60405161005091906101cc565b60405180910390f35b610061610134565b60005b600281101561012d5760005b600281101561011a5783826002811061008b5761008b61022c565b6040020181600281106100a0576100a061022c565b60200201358583600281106100b7576100b761022c565b6040020182600281106100cc576100cc61022c565b60200201356100db9190610258565b8383600281106100ed576100ed61022c565b602002015182600281106101035761010361022c565b6020020152806101128161026b565b915050610070565b50806101258161026b565b915050610064565b5092915050565b60405180604001604052806002905b61014b610161565b8152602001906001900390816101435790505090565b60405180604001604052806002906020820280368337509192915050565b806080810183101561019057600080fd5b92915050565b60008061010083850312156101aa57600080fd5b6101b4848461017f565b91506101c3846080850161017f565b90509250929050565b6080810181836000805b60028082106101e55750610222565b835185845b838110156102085782518252602092830192909101906001016101ea565b5050506040949094019350602092909201916001016101d6565b5050505092915050565b634e487b7160e01b600052603260045260246000fd5b634e487b7160e01b600052601160045260246000fd5b8082018082111561019057610190610242565b60006001820161027d5761027d610242565b506001019056fea2646970667358221220ec4440837e9eed416e540e3a963386ad6064a373271c2a831d602b7ae5f5293864736f6c63430008130033",
			"opcodes": "PUSH1 0x80 PUSH1 0x40 MSTORE CALLVALUE DUP1 ISZERO PUSH2 0x10 JUMPI PUSH1 0x0 DUP1 REVERT JUMPDEST POP PUSH2 0x2BA DUP1 PUSH2 0x20 PUSH1 0x0 CODECOPY PUSH1 0x0 RETURN INVALID PUSH1 0x80 PUSH1 0x40 MSTORE CALLVALUE DUP1 ISZERO PUSH2 0x10 JUMPI PUSH1 0x0 DUP1 REVERT JUMPDEST POP PUSH1 0x4 CALLDATASIZE LT PUSH2 0x2B JUMPI PUSH1 0x0 CALLDATALOAD PUSH1 0xE0 SHR DUP1 PUSH4 0x5F3FA56B EQ PUSH2 0x30 JUMPI JUMPDEST PUSH1 0x0 DUP1 REVERT JUMPDEST PUSH2 0x43 PUSH2 0x3E CALLDATASIZE PUSH1 0x4 PUSH2 0x196 JUMP JUMPDEST PUSH2 0x59 JUMP JUMPDEST PUSH1 0x40 MLOAD PUSH2 0x50 SWAP2 SWAP1 PUSH2 0x1CC JUMP JUMPDEST PUSH1 0x40 MLOAD DUP1 SWAP2 SUB SWAP1 RETURN JUMPDEST PUSH2 0x61 PUSH2 0x134 JUMP JUMPDEST PUSH1 0x0 JUMPDEST PUSH1 0x2 DUP2 LT ISZERO PUSH2 0x12D JUMPI PUSH1 0x0 JUMPDEST PUSH1 0x2 DUP2 LT ISZERO PUSH2 0x11A JUMPI DUP4 DUP3 PUSH1 0x2 DUP2 LT PUSH2 0x8B JUMPI PUSH2 0x8B PUSH2 0x22C JUMP JUMPDEST PUSH1 0x40 MUL ADD DUP2 PUSH1 0x2 DUP2 LT PUSH2 0xA0 JUMPI PUSH2 0xA0 PUSH2 0x22C JUMP JUMPDEST PUSH1 0x20 MUL ADD CALLDATALOAD DUP6 DUP4 PUSH1 0x2 DUP2 LT PUSH2 0xB7 JUMPI PUSH2 0xB7 PUSH2 0x22C JUMP JUMPDEST PUSH1 0x40 MUL ADD DUP3 PUSH1 0x2 DUP2 LT PUSH2 0xCC JUMPI PUSH2 0xCC PUSH2 0x22C JUMP JUMPDEST PUSH1 0x20 MUL ADD CALLDATALOAD PUSH2 0xDB SWAP2 SWAP1 PUSH2 0x258 JUMP JUMPDEST DUP4 DUP4 PUSH1 0x2 DUP2 LT PUSH2 0xED JUMPI PUSH2 0xED PUSH2 0x22C JUMP JUMPDEST PUSH1 0x20 MUL ADD MLOAD DUP3 PUSH1 0x2 DUP2 LT PUSH2 0x103 JUMPI PUSH2 0x103 PUSH2 0x22C JUMP JUMPDEST PUSH1 0x20 MUL ADD MSTORE DUP1 PUSH2 0x112 DUP2 PUSH2 0x26B JUMP JUMPDEST SWAP2 POP POP PUSH2 0x70 JUMP JUMPDEST POP DUP1 PUSH2 0x125 DUP2 PUSH2 0x26B JUMP JUMPDEST SWAP2 POP POP PUSH2 0x64 JUMP JUMPDEST POP SWAP3 SWAP2 POP POP JUMP JUMPDEST PUSH1 0x40 MLOAD DUP1 PUSH1 0x40 ADD PUSH1 0x40 MSTORE DUP1 PUSH1 0x2 SWAP1 JUMPDEST PUSH2 0x14B PUSH2 0x161 JUMP JUMPDEST DUP2 MSTORE PUSH1 0x20 ADD SWAP1 PUSH1 0x1 SWAP1 SUB SWAP1 DUP2 PUSH2 0x143 JUMPI SWAP1 POP POP SWAP1 JUMP JUMPDEST PUSH1 0x40 MLOAD DUP1 PUSH1 0x40 ADD PUSH1 0x40 MSTORE DUP1 PUSH1 0x2 SWAP1 PUSH1 0x20 DUP3 MUL DUP1 CALLDATASIZE DUP4 CALLDATACOPY POP SWAP2 SWAP3 SWAP2 POP POP JUMP JUMPDEST DUP1 PUSH1 0x80 DUP2 ADD DUP4 LT ISZERO PUSH2 0x190 JUMPI PUSH1 0x0 DUP1 REVERT JUMPDEST SWAP3 SWAP2 POP POP JUMP JUMPDEST PUSH1 0x0 DUP1 PUSH2 0x100 DUP4 DUP6 SUB SLT ISZERO PUSH2 0x1AA JUMPI PUSH1 0x0 DUP1 REVERT JUMPDEST PUSH2 0x1B4 DUP5 DUP5 PUSH2 0x17F JUMP JUMPDEST SWAP2 POP PUSH2 0x1C3 DUP5 PUSH1 0x80 DUP6 ADD PUSH2 0x17F JUMP JUMPDEST SWAP1 POP SWAP3 POP SWAP3 SWAP1 POP JUMP JUMPDEST PUSH1 0x80 DUP2 ADD DUP2 DUP4 PUSH1 0x0 DUP1 JUMPDEST PUSH1 0x2 DUP1 DUP3 LT PUSH2 0x1E5 JUMPI POP PUSH2 0x222 JUMP JUMPDEST DUP4 MLOAD DUP6 DUP5 JUMPDEST DUP4 DUP2 LT ISZERO PUSH2 0x208 JUMPI DUP3 MLOAD DUP3 MSTORE PUSH1 0x20 SWAP3 DUP4 ADD SWAP3 SWAP1 SWAP2 ADD SWAP1 PUSH1 0x1 ADD PUSH2 0x1EA JUMP JUMPDEST POP POP POP PUSH1 0x40 SWAP5 SWAP1 SWAP5 ADD SWAP4 POP PUSH1 0x20 SWAP3 SWAP1 SWAP3 ADD SWAP2 PUSH1 0x1 ADD PUSH2 0x1D6 JUMP JUMPDEST POP POP POP POP SWAP3 SWAP2 POP POP JUMP JUMPDEST PUSH4 0x4E487B71 PUSH1 0xE0 SHL PUSH1 0x0 MSTORE PUSH1 0x32 PUSH1 0x4 MSTORE PUSH1 0x24 PUSH1 0x0 REVERT JUMPDEST PUSH4 0x4E487B71 PUSH1 0xE0 SHL PUSH1 0x0 MSTORE PUSH1 0x11 PUSH1 0x4 MSTORE PUSH1 0x24 PUSH1 0x0 REVERT JUMPDEST DUP1 DUP3 ADD DUP1 DUP3 GT ISZERO PUSH2 0x190 JUMPI PUSH2 0x190 PUSH2 0x242 JUMP JUMPDEST PUSH1 0x0 PUSH1 0x1 DUP3 ADD PUSH2 0x27D JUMPI PUSH2 0x27D PUSH2 0x242 JUMP JUMPDEST POP PUSH1 0x1 ADD SWAP1 JUMP INVALID LOG2 PUSH5 0x6970667358 0x22 SLT KECCAK256 0xEC PREVRANDAO BLOCKHASH DUP4 PUSH31 0x9EED416E540E3A963386AD6064A373271C2A831D602B7AE5F5293864736F6C PUSH4 0x43000813 STOP CALLER "
		},
		"gasEstimates": {
			"creation": {
				"codeDepositCost": "139600",
				"executionCost": "183",
				"totalCost": "139783"
			},
			"external": {
				"solution(uint256[2][2],uint256[2][2])": "infinite"
			}
		},
		"methodIdentifiers": {
			"solution(uint256[2][2],uint256[2][2])": "5f3fa56b"
		}
	},
	"abi": [
		{
			"inputs": [
				{
					"internalType": "uint256[2][2]",
					"name": "x",
					"type": "uint256[2][2]"
				},
				{
					"internalType": "uint256[2][2]",
					"name": "y",
					"type": "uint256[2][2]"
				}
			],
			"name": "solution",
			"outputs": [
				{
					"internalType": "uint256[2][2]",
					"name": "finalArray",
					"type": "uint256[2][2]"
				}
			],
			"stateMutability": "pure",
			"type": "function"
		}
	]
}