{
	"data": {
		"bytecode": {
			"linkReferences": {},
			"object": "6080604052348015600f57600080fd5b50608d8061001e6000396000f3fe6080604052348015600f57600080fd5b506004361060285760003560e01c8063db53653e14602d575b600080fd5b603d6038366004603f565b600355565b005b600060208284031215605057600080fd5b503591905056fea26469706673582212208284ce6af481cc0bb6c92fb835a53d64e8c756d530cf9f4d6ead439f8ea01ae964736f6c63430008120033",
			"opcodes": "PUSH1 0x80 PUSH1 0x40 MSTORE CALLVALUE DUP1 ISZERO PUSH1 0xF JUMPI PUSH1 0x0 DUP1 REVERT JUMPDEST POP PUSH1 0x8D DUP1 PUSH2 0x1E PUSH1 0x0 CODECOPY PUSH1 0x0 RETURN INVALID PUSH1 0x80 PUSH1 0x40 MSTORE CALLVALUE DUP1 ISZERO PUSH1 0xF JUMPI PUSH1 0x0 DUP1 REVERT JUMPDEST POP PUSH1 0x4 CALLDATASIZE LT PUSH1 0x28 JUMPI PUSH1 0x0 CALLDATALOAD PUSH1 0xE0 SHR DUP1 PUSH4 0xDB53653E EQ PUSH1 0x2D JUMPI JUMPDEST PUSH1 0x0 DUP1 REVERT JUMPDEST PUSH1 0x3D PUSH1 0x38 CALLDATASIZE PUSH1 0x4 PUSH1 0x3F JUMP JUMPDEST PUSH1 0x3 SSTORE JUMP JUMPDEST STOP JUMPDEST PUSH1 0x0 PUSH1 0x20 DUP3 DUP5 SUB SLT ISZERO PUSH1 0x50 JUMPI PUSH1 0x0 DUP1 REVERT JUMPDEST POP CALLDATALOAD SWAP2 SWAP1 POP JUMP INVALID LOG2 PUSH5 0x6970667358 0x22 SLT KECCAK256 DUP3 DUP5 0xCE PUSH11 0xF481CC0BB6C92FB835A53D PUSH5 0xE8C756D530 0xCF SWAP16 0x4D PUSH15 0xAD439F8EA01AE964736F6C63430008 SLT STOP CALLER "
		},
		"gasEstimates": {
			"creation": {
				"codeDepositCost": "28200",
				"executionCost": "81",
				"totalCost": "28281"
			},
			"external": {
				"solution(uint256)": "22290"
			}
		},
		"methodIdentifiers": {
			"solution(uint256)": "db53653e"
		}
	},
	"abi": [
		{
			"inputs": [
				{
					"internalType": "uint256",
					"name": "value",
					"type": "uint256"
				}
			],
			"name": "solution",
			"outputs": [],
			"stateMutability": "nonpayable",
			"type": "function"
		}
	]
}