{
	"data": {
		"bytecode": {
			"linkReferences": {},
			"object": "6080604052348015600f57600080fd5b50607780601d6000396000f3fe6080604052348015600f57600080fd5b506004361060285760003560e01c80634fb6025114602d575b600080fd5b60408051602a815290519081900360200190f3fea2646970667358221220f85e2c98e63dcb56d13ce64c80110cac64631a59eac7093e0a7d717fd4bafca964736f6c63430008110033",
			"opcodes": "PUSH1 0x80 PUSH1 0x40 MSTORE CALLVALUE DUP1 ISZERO PUSH1 0xF JUMPI PUSH1 0x0 DUP1 REVERT JUMPDEST POP PUSH1 0x77 DUP1 PUSH1 0x1D PUSH1 0x0 CODECOPY PUSH1 0x0 RETURN INVALID PUSH1 0x80 PUSH1 0x40 MSTORE CALLVALUE DUP1 ISZERO PUSH1 0xF JUMPI PUSH1 0x0 DUP1 REVERT JUMPDEST POP PUSH1 0x4 CALLDATASIZE LT PUSH1 0x28 JUMPI PUSH1 0x0 CALLDATALOAD PUSH1 0xE0 SHR DUP1 PUSH4 0x4FB60251 EQ PUSH1 0x2D JUMPI JUMPDEST PUSH1 0x0 DUP1 REVERT JUMPDEST PUSH1 0x40 DUP1 MLOAD PUSH1 0x2A DUP2 MSTORE SWAP1 MLOAD SWAP1 DUP2 SWAP1 SUB PUSH1 0x20 ADD SWAP1 RETURN INVALID LOG2 PUSH5 0x6970667358 0x22 SLT KECCAK256 0xF8 0x5E 0x2C SWAP9 0xE6 RETURNDATASIZE 0xCB JUMP 0xD1 EXTCODECOPY 0xE6 0x4C DUP1 GT 0xC 0xAC PUSH5 0x631A59EAC7 MULMOD RETURNDATACOPY EXP PUSH30 0x717FD4BAFCA964736F6C6343000811003300000000000000000000000000 "
		},
		"gasEstimates": {
			"creation": {
				"codeDepositCost": "23800",
				"executionCost": "75",
				"totalCost": "23875"
			},
			"external": {
				"solution()": "149"
			}
		},
		"methodIdentifiers": {
			"solution()": "4fb60251"
		}
	},
	"abi": [
		{
			"inputs": [],
			"name": "solution",
			"outputs": [
				{
					"internalType": "uint8",
					"name": "",
					"type": "uint8"
				}
			],
			"stateMutability": "pure",
			"type": "function"
		}
	]
}